:020000040800F2
:1000000000500020A1010008E50100086901000876
:1000100051010008E5010008E501000800000000AA
:10002000000000000000000000000000E5010008E2
:10003000E501000800000000E5010008E5010008F6
:10004000E5010008E5010008E5010008E5010008F8
:10005000E5010008E5010008E5010008E5010008E8
:10006000E5010008E5010008E5010008E5010008D8
:10007000E5010008E5010008E5010008E5010008C8
:10008000E5010008E5010008E5010008E5010008B8
:10009000E5010008E5010008E5010008E5010008A8
:1000A000E5010008E5010008E5010008E501000898
:1000B000E5010008E5010008E5010008E501000888
:1000C000E5010008E5010008E5010008E501000878
:1000D000E5010008E5010008E5010008E501000868
:1000E000E5010008E5010008E50100080000000046
:1000F0000000000000000000000000000000000000
:0C01000000000000000000005FF808F1A3
:10010C0000220C4B1A604FF0005204331A600A4A5A
:10011C0004331A60094A136843F00143136002F672
:10012C002442136843F4803313600522044B1A6095
:10013C00704700BF98ED00E00BFF081600E100E0EF
:10014C0094ED00E04FF077344FF07735704700BFF7
:10015C004FF077344FF07735704700BF4FF077345E
:10016C004FF07735704700BF08B5FFF7C9FF03485C
:10017C004FF077314160FAE7704700000000002033
:10018C003C020008000000200000002000000020BD
:10019C0000000020002103E00A4B5B58435004315F
:1001AC0009480A4B42189A42F6D3094A02E0002346
:1001BC0042F8043B074B9A42F9D3FFF7DDFFFFF7F8
:1001CC00D3FF70473C020008000000200000002014
:0C01DC000000002000000020FEE70000F2
:04000005080001A14D
:00000001FF
