:020000040800F2
:1000000000500020AD040008F1040008F1040008CD
:10001000F1040008F1040008F104000800000000E9
:10002000000000000000000000000000F1040008D3
:10003000F1040008000000003D0100082101000853
:10004000F1040008F1040008F1040008F1040008BC
:10005000F1040008F1040008F1040008F1040008AC
:10006000F1040008F1040008F1040008F10400089C
:10007000F1040008F1040008F1040008F10400088C
:10008000F1040008F1040008F1040008F10400087C
:10009000F1040008F1040008F1040008F10400086C
:1000A000F1040008F1040008F1040008F10400085C
:1000B000F1040008F1040008F1040008F10400084C
:1000C000F1040008F1040008F1040008F10400083C
:1000D000F1040008F1040008F1040008F10400082C
:1000E000F1040008F1040008F10400080000000019
:1000F0000000000000000000000000000000000000
:0C01000000000000000000005FF808F1A3
:10010C003C22034B1A600722043B1A60704700BF65
:10011C0014E000E0044B1B68012B04D9034A13685C
:10012C0043F08053136070470000002004ED00E0A2
:10013C001A4B1A6801321A600021194A11602DE914
:10014C00F00FCB480068CB490968CB4A1268A0EB8A
:10015C00010002FB01F210440844C0F800D05A68B8
:10016C00104908680132B2FBF0F100FB11225A6011
:10017C00BF480068BF490968BF4A1268A0EB01007C
:10018C0002FB01F210440844D0F800D0BDE8F00F97
:10019C00BA484FF007010160704700BF040000200F
:1001AC0010E000E000000020294B1B680A2B4CD803
:1001BC00284A136823F002031360274B9B68B3F1A2
:1001CC00FF3F02D10022244B9A60234A93680133EB
:1001DC009360D0600FB4AA490968A1F10101A94A42
:1001EC001268A44B1B68A248006800F1040001FBD4
:1001FC0003F108444FF00001016341638163C16363
:10020C00016441648164C164016541658165C165B6
:10021C000166C0F864E082664FF08071C1669A494D
:10022C0009680167014601F130014167944908688A
:10023C0000F1010008600FBC0648016841F00201A2
:10024C0001600021D160184670470020704700BF44
:10025C000000002010E000E00400002082B00190BB
:10026C00002857DD2F4B19681B68012B45D92E4BE5
:10027C001A6822F002021A602C4A01A8D060FFB45E
:10028C008048006800687E490968A1F10101794A3B
:10029C001268774B1B6803F104031C6F844203D074
:1002AC0013440139F9D121E001291AD074490968A4
:1002BC00A1F102016E48006800F1040002FB01F29A
:1002CC0010444FF000054FF01E0146595E5105F1E8
:1002DC0004050139F9D10746A7EB0307A6EB07067E
:1002EC005E6767490868A0F101000860FFBC002048
:1002FC00D0601A6842F002021A600A4B1B689942DD
:10030C000AD9084B1B68012B08D10022074B9A60B5
:10031C00012004E0002002E0002000E0012002B0F7
:10032C00704700BF0000002010E000E00400002037
:10033C0001230360704700BF02B450E8001F00297E
:10034C00FBD0A1F1010140E800110029F5D102BC5C
:10035C00704700BF02B4016801F10101016002BCE9
:10036C00704700BF08B5094D094C2846FFF7E4FF5C
:10037C002368032B05DC2369013B23612368032BD2
:10038C00F9DD2846FFF7E6FFEFE700BF1C00002071
:10039C00040000200B29DABF016001200020704707
:1003AC0002B450E8001F0029FBDDA1F1010140E877
:1003BC0000110029F5D102BC704700BF02B450E80F
:1003CC00001F01F1010140E800110029F7D102BC26
:1003DC00704700BF08B5094D094C2846FFF7E0FFF0
:1003EC002368072B05DC2369013B23612368072B5A
:1003FC00F9DD2846FFF7E2FFEFE700BF1800002009
:10040C00040000200068704708B5FFF779FE012250
:10041C00114B1A60114C022323601148FFF7C4FEE4
:10042C001048FFF7C1FE2046FFF7BAFF0A4E0E4CEC
:10043C000A4D3046FFF780FF2369013323613046B4
:10044C00FFF788FF2846FFF7ABFF236901332361D1
:10045C002846FFF7B3FFECE71C0000201800002033
:10046C0071030008E103000804000020704700003D
:10047C00F8040008FC0400080800002010E000E06C
:10048C0000000020100000200C0000205405000883
:10049C0000000020040000200400002020000020A8
:1004AC00002103E00A4B5B584350043109480A4BC6
:1004BC0042189A42F6D3094A02E0002342F8043B60
:1004CC00074B9A42F9D3FFF7D1FFFFF79DFF704717
:1004DC005405000800000020040000200400002047
:1004EC0020000020FEE700000B00000044FBFF3F53
:0404FC007800000084
:0405540001000000A2
:04000005080004AD3E
:00000001FF
