:020000040800F2
:1000000000500020FD0100084102000841020008E4
:1000100041020008410200084102000800000000FF
:100020000000000000000000000000004102000885
:1000300041020008000000004102000841020008DF
:100040004102000841020008410200084102000884
:100050004102000841020008410200084102000874
:100060004102000841020008410200084102000864
:100070004102000841020008410200084102000854
:100080004102000841020008210100084102000865
:100090004102000841020008410200084102000834
:1000A0004102000841020008410200084102000824
:1000B0004102000841020008410200084102000814
:1000C0004102000841020008410200084102000804
:1000D00041020008410200084102000841020008F4
:1000E000410200084102000841020008000000002F
:1000F0000000000000000000000000000000000000
:0C01000000000000000000005FF808F1A3
:10010C0098020008000000200400002004000020D9
:10011C0004000020054B1B6813F0020F1ABF044BA0
:10012C001A684FF0FF32034B1A60704708240140E5
:10013C004C2401400000002083B2012B2BD8174A1D
:10014C00136843F480231360154A136843F4007357
:10015C001360144B1A6800221A60043B19681A6069
:10016C001A6842F020021A60012804D10D4A136863
:10017C0043F0020313600B4B1A6842F001021A6041
:10018C001A6842F004021A601A46136813F0040F3E
:10019C00FBD1012070470020704700BF00E100E058
:1001AC001810024008240140054A136803431360E9
:1001BC00243A136800EB400081400B4313607047F6
:1001CC0034240140024A136843F001031360704762
:1001DC000824014008B50120FFF7AEFF02200146BC
:1001EC00FFF7E2FFFFF7EEFFFEE700BF704700BF2F
:1001FC00002103E00A4B5B584350043109480A4B79
:10020C0042189A42F6D3094A02E0002342F8043B12
:10021C00074B9A42F9D3FFF7E9FFFFF7DBFF704773
:10022C0098020008000000200400002004000020B8
:08023C0004000020FEE70000B1
:04029800FFFFFFFF66
:04000005080001FDF1
:00000001FF
