:020000040800F2
:1000000000500020BD0200080103000801030008A1
:1000100001030008010300080103000800000000BC
:1000200000000000000000000000000001030008C4
:10003000010300080000000001030008010300089C
:100040000103000801030008010300080103000880
:100050000103000801030008010300080103000870
:100060000103000801030008010300080103000860
:100070000103000801030008010300080103000850
:100080000103000801030008010300080103000840
:100090000103000801030008010300080103000830
:1000A0000103000801030008010300080103000820
:1000B0000103000801030008010300080103000810
:1000C0000103000801030008010300080103000800
:1000D00001030008010300080103000801030008F0
:1000E00001030008010300080103000800000000EC
:1000F0000000000000000000000000000000000000
:0C01000000000000000000005FF808F1A3
:10010C0070B483B0A0F141040194019CA402019449
:10011C00019CA4080194019D2E4C246804EB8504D9
:10012C0001250195019D3F3805FA00F001902A4DFB
:10013C002868019E30432860072B02DD083B1BB268
:10014C0004346FF00F000190002B2DDD01989D0001
:10015C00019EC3F108039B00DE40A8403043019090
:10016C0026680198304020600026019601980143D2
:10017C00019101990198D840A9400143019120684F
:10018C000199014321600196019941EA8202019291
:10019C00019A0199D94002FA05F30B4301932268A5
:1001AC00019B1343236012E02068019B03402360F2
:1001BC0000200190019B194301912168019B0B4385
:1001CC0023600190019B43EA82020192E7E703B0AE
:1001DC0070BC7047000000201810024082B04138FB
:1001EC000190019B9B020193019B9B080193019A37
:1001FC00074B1B6803EB820301220192019A8A4090
:10020C0001921969019A0A431A6102B0704700BF42
:10021C000000002082B041380190019B9B020193A9
:10022C00019B9B080193019A084B1B6803EB82030B
:10023C00103101220192019A09B28A400192196986
:10024C00019A0A431A6102B0704700BF00000020F7
:10025C0008B54420012100220223FFF751FF43205F
:10026C00012102220623FFF74BFF4120012100222E
:10027C000223FFF745FF44200221FFF7AFFF432085
:10028C000621FFF7ABFF41200221FFF7A7FF442017
:10029C000221FFF7BFFFFEE7704700BF58030008BD
:1002AC0000000020040000200400002004000020B6
:1002BC00002103E00A4B5B584350043109480A4BB8
:1002CC0042189A42F6D3094A02E0002342F8043B52
:1002DC00074B9A42F9D3FFF7DFFFFFF7B9FF7047DF
:1002EC005803000800000020040000200400002037
:0802FC0004000020FEE70000F1
:040358000008014058
:04000005080002BD30
:00000001FF
