:020000040800F2
:10000000005000206D030008B1030008B103000890
:10001000B1030008B1030008B103000800000000AC
:10002000000000000000000000000000B103000814
:10003000B10300080000000021010008B10300081E
:10004000B1030008B1030008B1030008B1030008C0
:10005000B1030008B1030008B1030008B1030008B0
:10006000B1030008B1030008B1030008B1030008A0
:10007000B1030008B1030008B1030008B103000890
:10008000B1030008B1030008B1030008B103000880
:10009000B1030008B1030008B1030008B103000870
:1000A000B1030008B1030008B1030008B103000860
:1000B000B1030008B1030008B1030008B103000850
:1000C000B1030008B1030008B1030008B103000840
:1000D000B1030008B1030008B1030008B103000830
:1000E000B1030008B1030008B103000800000000DC
:1000F0000000000000000000000000000000000000
:0C01000000000000000000005FF808F1A3
:10010C00FF22034B1A600722043B1A60704700BFA2
:10011C0014E000E000221A4B1A602DE9F00F84481D
:10012C00006884490988844A1288A0EB010002FB0C
:10013C0001F210440844C0F800D0124803889BB266
:10014C00114A118889B2013393FBF1F201FB12338E
:10015C009BB203807648006876490988764A1288F3
:10016C00A0EB010002FB01F210440844D0F800D0CF
:10017C00BDE8F00F71484FF007010160704700BFF8
:10018C0010E000E018000020000000202A4B1B8823
:10019C009BB20A2B4AD810B4284C236823F00203D4
:1001AC002360254A5388013B9BB25380244902EBC0
:1001BC0043039B884B8048600FB461490988A1F1C7
:1001CC000101604A12685B4B1B885948006800F1BA
:1001DC00040001FB03F108444FF00001016341638B
:1001EC008163C163016441648164C16401654165DB
:1001FC008165C1650166C0F864E082664FF080716C
:10020C00C166514909880167014601F13001416716
:10021C004B49088800F1010008800FBC236843F0AB
:10022C000203236000234B60488801E000207047E4
:10023C005DF8044B704700BF0000002010E000E0A8
:10024C001800002082B0019000285FDD324A13882C
:10025C009BB2128892B2012A47D9304A116821F018
:10026C00020111602E4901A84860FFB435480068AE
:10027C00006833490988A1F101012E4A12882C4BE0
:10028C001B6803F104031C6F844203D0134401392F
:10029C00F9D123E02C4C208001291AD02849098857
:1002AC00A1F102012248006800F1040002FB01F2F6
:1002BC0010444FF000054FF01E0146595E5105F1F8
:1002CC0004050139F9D10746A7EB0307A6EB07068E
:1002DC005E671B490888A0F101000880FFBC002064
:1002EC004860116841F0020111600B4A128892B209
:1002FC001BB29A420CDA084A538802EB43010848B5
:10030C004088888001335380012002E0002000E007
:10031C00002002B0704700BF0000002010E000E099
:10032C001800002008B5FFF7EBFEFEE77047000051
:10033C00B4030008B80300081800002010E000E027
:10034C00000000201C0000201A00002010040008EF
:10035C0000000020180000201800002020000020C1
:10036C00002103E00A4B5B584350043109480A4B07
:10037C0042189A42F6D3094A02E0002342F8043BA1
:10038C00074B9A42F9D3FFF7D1FFFFF7CBFF70472A
:10039C0010040008000000201800002018000020A5
:1003AC0020000020FEE7000044FBFF3F7800000027
:1004100001000A000A0009000800070006000500A4
:080420000400030002000100CA
:040000050800036D7F
:00000001FF
