:020000040800F2
:1000000000500020C1010008050200080502000898
:1000100005020008050200080502000800000000B3
:1000200000000000000000000000000005020008C1
:100030000502000800000000050200084D0100084C
:100040000502000805020008050200080502000874
:100050000502000805020008050200080502000864
:100060000502000805020008050200080502000854
:100070000502000805020008050200080502000844
:100080000502000805020008050200080502000834
:100090000502000805020008050200080502000824
:1000A0000502000805020008050200080502000814
:1000B0000502000805020008050200080502000804
:1000C00005020008050200080502000805020008F4
:1000D00005020008050200080502000805020008E4
:1000E00005020008050200080502000800000000E3
:1000F0000000000000000000000000000000000000
:0C01000000000000000000005FF808F1A3
:10010C0044F29812054B1A60054B1A6822F0F00263
:10011C001A601A6842F020021A60704714E000E07E
:10012C00000C01400222014B1A607047100C014078
:10013C004FF40032014B1A60704700BF100C0140A5
:10014C00024A136801331360704700BF000000209F
:10015C000722064B1A60064A13688342FCDB002315
:10016C00024A1360024A1360704700BF10E000E0BF
:10017C000000002008B5FFF7C3FF074D02264FF41F
:10018C00FA742E602046FFF7E3FF4FF400332B6028
:10019C002046FFF7DDFFF4E7100C0140704700BF6D
:1001AC005C0200080000002000000020000000207D
:1001BC0004000020002103E00A4B5B58435004313B
:1001CC0009480A4B42189A42F6D3094A02E0002326
:1001DC0042F8043B074B9A42F9D3FFF7DFFFFFF7D6
:1001EC00C9FF70475C0200080000002000000020DE
:0C01FC000000002004000020FEE70000CE
:04000005080001C12D
:00000001FF
