:020000040800F2
:1000000000500020D501000819020008190200085C
:100010001902000819020008190200080000000077
:1000200000000000000000000000000019020008AD
:100030001902000800000000190200081902000857
:100040001902000819020008190200081902000824
:100050001902000819020008190200081902000814
:100060001902000819020008190200081902000804
:1000700019020008190200081902000819020008F4
:1000800019020008190200081902000819020008E4
:1000900019020008190200081902000819020008D4
:1000A00019020008190200081902000819020008C4
:1000B00019020008190200081902000819020008B4
:1000C00019020008190200081902000819020008A4
:1000D0001902000819020008190200081902000894
:1000E00019020008190200081902000800000000A7
:1000F0000000000000000000000000000000000000
:0C01000000000000000000005FF808F1A3
:10010C00431E9BB2012B1BD80F4A136843F00053BC
:10011C001360012808D10D4B1A6800221A601A6866
:10012C0042F039021A60704702280BD1074B1A684B
:10013C0000221A601A6842F464121A600120704797
:10014C0000207047012070471C10024000740040D2
:10015C00012A0DD10E4A136843F00103136011B943
:10016C000C4B18607047012911D10B4B186070476C
:10017C00022A0CD1064A136843F00203136011B92A
:10018C00064B18607047012904BF054B1860704777
:10019C0004740040087400400C7400401474004057
:1001AC001874004008B50120FFF7AAFFFEE700BF56
:1001BC00704700BF70020008000000200000002003
:1001CC000000002000000020002103E00A4B5B58D7
:1001DC004350043109480A4B42189A42F6D3094A53
:1001EC0002E0002342F8043B074B9A42F9D3FFF795
:1001FC00DFFFFFF7D7FF70477002000800000020F8
:10020C00000000200000002000000020FEE700009D
:04000005080001D519
:00000001FF
